{
  "contractName": "StateChannels",
  "abi": [
    {
      "constant": false,
      "inputs": [
        {
          "name": "hash",
          "type": "bytes32"
        },
        {
          "name": "sig",
          "type": "bytes"
        },
        {
          "name": "signer",
          "type": "address"
        }
      ],
      "name": "ecverify",
      "outputs": [
        {
          "name": "b",
          "type": "bool"
        }
      ],
      "payable": false,
      "stateMutability": "nonpayable",
      "type": "function"
    },
    {
      "constant": true,
      "inputs": [
        {
          "name": "hash",
          "type": "bytes32"
        },
        {
          "name": "sig",
          "type": "bytes"
        }
      ],
      "name": "ecrecovery",
      "outputs": [
        {
          "name": "",
          "type": "address"
        }
      ],
      "payable": false,
      "stateMutability": "pure",
      "type": "function"
    },
    {
      "anonymous": false,
      "inputs": [
        {
          "indexed": false,
          "name": "channelId",
          "type": "bytes32"
        }
      ],
      "name": "ChannelOpened",
      "type": "event"
    },
    {
      "anonymous": false,
      "inputs": [
        {
          "indexed": false,
          "name": "channelId",
          "type": "bytes32"
        }
      ],
      "name": "CounterPartyJoined",
      "type": "event"
    },
    {
      "anonymous": false,
      "inputs": [
        {
          "indexed": false,
          "name": "num",
          "type": "uint8"
        }
      ],
      "name": "LogNum",
      "type": "event"
    },
    {
      "anonymous": false,
      "inputs": [
        {
          "indexed": false,
          "name": "num",
          "type": "uint256"
        }
      ],
      "name": "LogNum256",
      "type": "event"
    },
    {
      "anonymous": false,
      "inputs": [
        {
          "indexed": false,
          "name": "b",
          "type": "bool"
        }
      ],
      "name": "LogBool",
      "type": "event"
    },
    {
      "constant": false,
      "inputs": [
        {
          "name": "channelId",
          "type": "bytes32"
        },
        {
          "name": "address1",
          "type": "address"
        },
        {
          "name": "value",
          "type": "uint256"
        }
      ],
      "name": "open",
      "outputs": [],
      "payable": true,
      "stateMutability": "payable",
      "type": "function"
    },
    {
      "constant": false,
      "inputs": [
        {
          "name": "channelId",
          "type": "bytes32"
        }
      ],
      "name": "join",
      "outputs": [],
      "payable": true,
      "stateMutability": "payable",
      "type": "function"
    },
    {
      "constant": false,
      "inputs": [
        {
          "name": "channelId",
          "type": "bytes32"
        },
        {
          "name": "sequenceNumber",
          "type": "uint256"
        },
        {
          "name": "balance0",
          "type": "uint256"
        },
        {
          "name": "balance1",
          "type": "uint256"
        },
        {
          "name": "signature0",
          "type": "bytes"
        },
        {
          "name": "signature1",
          "type": "bytes"
        }
      ],
      "name": "close",
      "outputs": [],
      "payable": false,
      "stateMutability": "nonpayable",
      "type": "function"
    }
  ],
  "bytecode": "0x608060405234801561001057600080fd5b5061126b806100206000396000f3fe60806040526004361061004a5760003560e01c806339cdde321461004f5780635307eea61461015957806377d32e94146102e0578063ad677d0b146103f2578063fd745bce14610420575b600080fd5b34801561005b57600080fd5b5061013f6004803603606081101561007257600080fd5b81019080803590602001909291908035906020019064010000000081111561009957600080fd5b8201836020820111156100ab57600080fd5b803590602001918460018302840111640100000000831117156100cd57600080fd5b91908080601f016020809104026020016040519081016040528093929190818152602001838380828437600081840152601f19601f820116905080830192505050505050509192919290803573ffffffffffffffffffffffffffffffffffffffff169060200190929190505050610478565b604051808215151515815260200191505060405180910390f35b34801561016557600080fd5b506102de600480360360c081101561017c57600080fd5b8101908080359060200190929190803590602001909291908035906020019092919080359060200190929190803590602001906401000000008111156101c157600080fd5b8201836020820111156101d357600080fd5b803590602001918460018302840111640100000000831117156101f557600080fd5b91908080601f016020809104026020016040519081016040528093929190818152602001838380828437600081840152601f19601f8201169050808301925050505050505091929192908035906020019064010000000081111561025857600080fd5b82018360208201111561026a57600080fd5b8035906020019184600183028401116401000000008311171561028c57600080fd5b91908080601f016020809104026020016040519081016040528093929190818152602001838380828437600081840152601f19601f8201169050808301925050505050505091929192905050506104f9565b005b3480156102ec57600080fd5b506103b06004803603604081101561030357600080fd5b81019080803590602001909291908035906020019064010000000081111561032a57600080fd5b82018360208201111561033c57600080fd5b8035906020019184600183028401116401000000008311171561035e57600080fd5b91908080601f016020809104026020016040519081016040528093929190818152602001838380828437600081840152601f19601f820116905080830192505050505050509192919290505050610a78565b604051808273ffffffffffffffffffffffffffffffffffffffff1673ffffffffffffffffffffffffffffffffffffffff16815260200191505060405180910390f35b61041e6004803603602081101561040857600080fd5b8101908080359060200190929190505050610b6a565b005b6104766004803603606081101561043657600080fd5b8101908080359060200190929190803573ffffffffffffffffffffffffffffffffffffffff16906020019092919080359060200190929190505050610d5f565b005b60008173ffffffffffffffffffffffffffffffffffffffff1661049b8585610a78565b73ffffffffffffffffffffffffffffffffffffffff161490507fc33356bc2bad2ce263b056da5d061d4e89c336823d5e77f14c1383aedb7a1b3a81604051808215151515815260200191505060405180910390a18090509392505050565b6000801b60008088815260200190815260200160002060000154141561056a576040517f08c379a00000000000000000000000000000000000000000000000000000000081526004018080602001828103825260258152602001806111756025913960400191505060405180910390fd5b61057261108f565b6000808881526020019081526020016000206040518060c0016040529081600082015481526020016001820160009054906101000a900473ffffffffffffffffffffffffffffffffffffffff1673ffffffffffffffffffffffffffffffffffffffff1673ffffffffffffffffffffffffffffffffffffffff1681526020016002820160009054906101000a900473ffffffffffffffffffffffffffffffffffffffff1673ffffffffffffffffffffffffffffffffffffffff1673ffffffffffffffffffffffffffffffffffffffff168152602001600382015481526020016004820154815260200160058201548152505090503373ffffffffffffffffffffffffffffffffffffffff16816020015173ffffffffffffffffffffffffffffffffffffffff1614806106d257503373ffffffffffffffffffffffffffffffffffffffff16816040015173ffffffffffffffffffffffffffffffffffffffff16145b610727576040517f08c379a00000000000000000000000000000000000000000000000000000000081526004018080602001828103825260298152602001806111256029913960400191505060405180910390fd5b6000878686896040516020018085815260200184815260200183815260200182815260200194505050505060405160208183030381529060405280519060200120905061077981858460200151610478565b6107eb576040517f08c379a00000000000000000000000000000000000000000000000000000000081526004018080602001828103825260128152602001807f7369676e61747572653020696e76616c6964000000000000000000000000000081525060200191505060405180910390fd5b6107fa81848460400151610478565b61086c576040517f08c379a00000000000000000000000000000000000000000000000000000000081526004018080602001828103825260128152602001807f7369676e61747572653120696e76616c6964000000000000000000000000000081525060200191505060405180910390fd5b8160a0015187116108e5576040517f08c379a00000000000000000000000000000000000000000000000000000000081526004018080602001828103825260178152602001807f73657175656e6365206e756d62657220746f6f206c6f7700000000000000000081525060200191505060405180910390fd5b816080015182606001510185870114610949576040517f08c379a000000000000000000000000000000000000000000000000000000000815260040180806020018281038252603b815260200180611205603b913960400191505060405180910390fd5b6000808981526020019081526020016000206000808201600090556001820160006101000a81549073ffffffffffffffffffffffffffffffffffffffff02191690556002820160006101000a81549073ffffffffffffffffffffffffffffffffffffffff021916905560038201600090556004820160009055600582016000905550506000826020015190506000836040015190508173ffffffffffffffffffffffffffffffffffffffff166108fc899081150290604051600060405180830381858888f19350505050158015610a24573d6000803e3d6000fd5b508073ffffffffffffffffffffffffffffffffffffffff166108fc889081150290604051600060405180830381858888f19350505050158015610a6b573d6000803e3d6000fd5b5050505050505050505050565b6000806000806041855114610ad0576040517f08c379a0000000000000000000000000000000000000000000000000000000008152600401808060200182810382526000815260200160200191505060405180910390fd5b602085015192506040850151915060418501519050601b8160ff161015610af857601b810190505b60018682858560405160008152602001604052604051808581526020018460ff1660ff1681526020018381526020018281526020019450505050506020604051602081039080840390855afa158015610b55573d6000803e3d6000fd5b50505060206040510351935050505092915050565b6000801b600080838152602001908152602001600020600001541415610bdb576040517f08c379a00000000000000000000000000000000000000000000000000000000081526004018080602001828103825260258152602001806111756025913960400191505060405180910390fd5b3373ffffffffffffffffffffffffffffffffffffffff1660008083815260200190815260200160002060020160009054906101000a900473ffffffffffffffffffffffffffffffffffffffff1673ffffffffffffffffffffffffffffffffffffffff1614610c94576040517f08c379a000000000000000000000000000000000000000000000000000000000815260040180806020018281038252604181526020018061119a6041913960600191505060405180910390fd5b6000341415610d0b576040517f08c379a000000000000000000000000000000000000000000000000000000000815260040180806020018281038252600f8152602001807f696e636f72726563742066756e6473000000000000000000000000000000000081525060200191505060405180910390fd5b34600080838152602001908152602001600020600401819055507fc91827891132dd25370eb6dd3c78280c27e7acfe3eb30ba6fecc8985feb48999816040518082815260200191505060405180910390a150565b82600080858152602001908152602001600020600001541415610dcd576040517f08c379a000000000000000000000000000000000000000000000000000000000815260040180806020018281038252602a8152602001806111db602a913960400191505060405180910390fd5b8173ffffffffffffffffffffffffffffffffffffffff163373ffffffffffffffffffffffffffffffffffffffff161415610e52576040517f08c379a000000000000000000000000000000000000000000000000000000000815260040180806020018281038252602781526020018061114e6027913960400191505060405180910390fd5b6000811415610eac576040517f08c379a00000000000000000000000000000000000000000000000000000000081526004018080602001828103825260308152602001806110f56030913960400191505060405180910390fd5b803414610f21576040517f08c379a000000000000000000000000000000000000000000000000000000000815260040180806020018281038252600f8152602001807f696e636f72726563742066756e6473000000000000000000000000000000000081525060200191505060405180910390fd5b610f2961108f565b6040518060c001604052808581526020013373ffffffffffffffffffffffffffffffffffffffff1681526020018473ffffffffffffffffffffffffffffffffffffffff1681526020013481526020016000815260200160008152509050806000808681526020019081526020016000206000820151816000015560208201518160010160006101000a81548173ffffffffffffffffffffffffffffffffffffffff021916908373ffffffffffffffffffffffffffffffffffffffff16021790555060408201518160020160006101000a81548173ffffffffffffffffffffffffffffffffffffffff021916908373ffffffffffffffffffffffffffffffffffffffff160217905550606082015181600301556080820151816004015560a082015181600501559050507f7ffc675d721b8768e035a323722842743bb523487b535906abc97e6b3e2095d0846040518082815260200191505060405180910390a150505050565b6040518060c0016040528060008019168152602001600073ffffffffffffffffffffffffffffffffffffffff168152602001600073ffffffffffffffffffffffffffffffffffffffff168152602001600081526020016000815260200160008152509056fe796f752063616e2774206372656174652061207061796d656e74206368616e6e656c2077697468206e6f206d6f6e6579796f7520617265206e6f742061207061727469636970616e7420696e2074686973206368616e6e656c796f752063616e74206372656174652061206368616e6e656c207769746820796f757273656c666e6f206368616e6e656c20776974682074686174206368616e6e656c496420657869737473746865206368616e6e656c2063726561746f7220646964206e6f74207370656369667920796f7520617320746865207365636f6e64207061727469636970616e746368616e6e656c20776974682074686174206368616e6e656c496420616c726561647920657869737473746865206c6177206f6620636f6e736572766174696f6e206f6620746f74616c2062616c616e63657320776173206e6f7420726573706563746564a165627a7a7230582022fb287aef71a6add71bd3c993109db2c281ca4db9afa815e49355b79249f3a80029",
  "source": "pragma solidity 0.5.8;\n\ncontract ECVerify {\n    event LogNum(uint8 num);\n    event LogNum256(uint256 num);\n    event LogBool(bool b);\n    function ecrecovery(bytes32 hash, bytes memory sig) public pure returns (address) {\n        bytes32 r;\n        bytes32 s;\n        uint8 v;\n\n        // FIXME: Should this throw, or return 0?\n        require(sig.length == 65, \"\");\n\n        // The signature format is a compact form of:\n        //   {bytes32 r}{bytes32 s}{uint8 v}\n        // Compact means, uint8 is not padded to 32 bytes.\n        assembly {\n            r := mload(add(sig, 32))\n            s := mload(add(sig, 64))\n            v := mload(add(sig, 65))\n        }\n\n        // old geth sends a `v` value of [0,1], while the new, in line with the YP sends [27,28]\n        if (v < 27) v += 27;\n\n        return ecrecover(hash, v, r, s);\n    }\n\n    function ecverify(bytes32 hash, bytes memory sig, address signer) public returns (bool b) {\n        b = ecrecovery(hash, sig) == signer;\n        emit LogBool(b);\n        return b;\n    }\n}\n\ncontract StateChannels is ECVerify {\n    // the data structure for the channel\n    struct Channel {\n        bytes32 channelId;\n        address address0;\n        address address1;\n        uint balance0;\n        uint balance1;\n        uint sequenceNumber;\n    }\n\n    // channels by Id\n    mapping(bytes32 => Channel) channels;\n\n    event ChannelOpened(bytes32 channelId);\n    event CounterPartyJoined(bytes32 channelId);\n\n    // TODO: Generate channelId\n    function open(bytes32 channelId, address address1, uint value) public payable {\n        require(\n            channels[channelId].channelId != channelId,\n            \"channel with that channelId already exists\"\n        );\n        require(msg.sender != address1, \"you cant create a channel with yourself\");\n        require(value != 0, \"you can't create a payment channel with no money\");\n        require(msg.value == value, \"incorrect funds\");\n\n        Channel memory channel = Channel(\n            channelId,\n            msg.sender, // address0\n            address1, // address1\n            msg.value, // balance0\n            0, // balance1\n            0 // sequence number\n        );\n\n        channels[channelId] = channel;\n\n        emit ChannelOpened(channelId);\n    }\n\n    function join(bytes32 channelId) public payable {\n        require(channels[channelId].channelId != 0, \"no channel with that channelId exists\");\n        require(\n            channels[channelId].address1 == msg.sender,\n            \"the channel creator did not specify you as the second participant\"\n        );\n        require(msg.value != 0, \"incorrect funds\");\n\n        channels[channelId].balance1 = msg.value;\n\n        emit CounterPartyJoined(channelId);\n    }\n\n    function close(\n        bytes32 channelId,\n        uint sequenceNumber,\n        uint balance0,\n        uint balance1,\n        bytes memory signature0,\n        bytes memory signature1\n    ) public {\n        require(channels[channelId].channelId != 0, \"no channel with that channelId exists\");\n\n        // copies the channel from storage into memory\n        Channel memory channel = channels[channelId];\n\n        require(\n            channel.address0 == msg.sender || channel.address1 == msg.sender,\n            \"you are not a participant in this channel\"\n        );\n\n        // sha3\n        bytes32 stateHash = keccak256(\n            abi.encodePacked(channelId, balance0, balance1, sequenceNumber)\n        );\n\n        require(ecverify(stateHash, signature0, channel.address0), \"signature0 invalid\");\n\n        require(ecverify(stateHash, signature1, channel.address1), \"signature1 invalid\");\n\n        // TODO: Remove-me?\n        require(sequenceNumber > channel.sequenceNumber, \"sequence number too low\");\n\n        require(\n            (balance0 + balance1) == (channel.balance0 + channel.balance1),\n            \"the law of conservation of total balances was not respected\"\n        );\n\n        // delete channel storage first to prevent re-entry\n        delete channels[channelId];\n\n        address payable a0 = address(uint160(channel.address0));\n        address payable a1 = address(uint160(channel.address1));\n\n        a0.transfer(balance0);\n        a1.transfer(balance1);\n    }\n}\n",
  "sourcePath": "/home/cmarcelo/git/state-channel/contracts/StateChannels.sol",
  "compiler": {
    "name": "solc",
    "version": "0.5.8+commit.23d335f2.Emscripten.clang"
  },
  "schemaVersion": "3.0.10",
  "updatedAt": "2019-06-06T12:36:43.267Z",
  "devdoc": {
    "methods": {}
  },
  "userdoc": {
    "methods": {}
  }
}